{
	"data": {
		"bytecode": {
			"linkReferences": {},
			"object": "6080604052348015600e575f80fd5b506114138061001c5f395ff3fe608060405234801561000f575f80fd5b5060043610610055575f3560e01c80630d5723af14610059578063752c0c1514610089578063b3026368146100bd578063b8d2caee146100ed578063eba73c7c1461010b575b5f80fd5b610073600480360381019061006e9190610a47565b61013b565b6040516100809190610a94565b60405180910390f35b6100a3600480360381019061009e9190610aad565b610166565b6040516100b4959493929190610b57565b60405180910390f35b6100d760048036038101906100d29190610ce9565b610357565b6040516100e49190610a94565b60405180910390f35b6100f56105e1565b6040516101029190610a94565b60405180910390f35b61012560048036038101906101209190610d8d565b6105ec565b6040516101329190610f5a565b60405180910390f35b6001602052815f5260405f208181548110610154575f80fd5b905f5260205f20015f91509150505481565b5f8181548110610174575f80fd5b905f5260205f2090600502015f91509050805f015f9054906101000a900473ffffffffffffffffffffffffffffffffffffffff16908060010180546101b890610fa7565b80601f01602080910402602001604051908101604052809291908181526020018280546101e490610fa7565b801561022f5780601f106102065761010080835404028352916020019161022f565b820191905f5260205f20905b81548152906001019060200180831161021257829003601f168201915b50505050509080600201805461024490610fa7565b80601f016020809104026020016040519081016040528092919081815260200182805461027090610fa7565b80156102bb5780601f10610292576101008083540402835291602001916102bb565b820191905f5260205f20905b81548152906001019060200180831161029e57829003601f168201915b5050505050908060030180546102d090610fa7565b80601f01602080910402602001604051908101604052809291908181526020018280546102fc90610fa7565b80156103475780601f1061031e57610100808354040283529160200191610347565b820191905f5260205f20905b81548152906001019060200180831161032a57829003601f168201915b5050505050908060040154905085565b5f8084511161039b576040517f08c379a000000000000000000000000000000000000000000000000000000000815260040161039290611021565b60405180910390fd5b5f8351116103de576040517f08c379a00000000000000000000000000000000000000000000000000000000081526004016103d590611089565b60405180910390fd5b5f825111610421576040517f08c379a0000000000000000000000000000000000000000000000000000000008152600401610418906110f1565b60405180910390fd5b5f6040518060a001604052803373ffffffffffffffffffffffffffffffffffffffff1681526020018681526020018581526020018481526020014281525090505f808054905090505f82908060018154018082558091505060019003905f5260205f2090600502015f909190919091505f820151815f015f6101000a81548173ffffffffffffffffffffffffffffffffffffffff021916908373ffffffffffffffffffffffffffffffffffffffff16021790555060208201518160010190816104ea91906112ac565b50604082015181600201908161050091906112ac565b50606082015181600301908161051691906112ac565b5060808201518160040155505060015f3373ffffffffffffffffffffffffffffffffffffffff1673ffffffffffffffffffffffffffffffffffffffff1681526020019081526020015f2081908060018154018082558091505060019003905f5260205f20015f90919091909150553373ffffffffffffffffffffffffffffffffffffffff16817f09394dacdfb781605e27c4bf5b7bf8a7e3abacb7086d4d35ce8f51182407b0f187876040516105cd92919061137b565b60405180910390a380925050509392505050565b5f8080549050905090565b60605f60015f8473ffffffffffffffffffffffffffffffffffffffff1673ffffffffffffffffffffffffffffffffffffffff1681526020019081526020015f2080548060200260200160405190810160405280929190818152602001828054801561067457602002820191905f5260205f20905b815481526020019060010190808311610660575b505050505090505f815167ffffffffffffffff81111561069757610696610bc5565b5b6040519080825280602002602001820160405280156106d057816020015b6106bd610966565b8152602001906001900390816106b55790505b5090505f5b825181101561095b575f8382815181106106f2576106f16113b0565b5b60200260200101518154811061070b5761070a6113b0565b5b905f5260205f2090600502016040518060a00160405290815f82015f9054906101000a900473ffffffffffffffffffffffffffffffffffffffff1673ffffffffffffffffffffffffffffffffffffffff1673ffffffffffffffffffffffffffffffffffffffff16815260200160018201805461078690610fa7565b80601f01602080910402602001604051908101604052809291908181526020018280546107b290610fa7565b80156107fd5780601f106107d4576101008083540402835291602001916107fd565b820191905f5260205f20905b8154815290600101906020018083116107e057829003601f168201915b5050505050815260200160028201805461081690610fa7565b80601f016020809104026020016040519081016040528092919081815260200182805461084290610fa7565b801561088d5780601f106108645761010080835404028352916020019161088d565b820191905f5260205f20905b81548152906001019060200180831161087057829003601f168201915b505050505081526020016003820180546108a690610fa7565b80601f01602080910402602001604051908101604052809291908181526020018280546108d290610fa7565b801561091d5780601f106108f45761010080835404028352916020019161091d565b820191905f5260205f20905b81548152906001019060200180831161090057829003601f168201915b50505050508152602001600482015481525050828281518110610943576109426113b0565b5b602002602001018190525080806001019150506106d5565b508092505050919050565b6040518060a001604052805f73ffffffffffffffffffffffffffffffffffffffff1681526020016060815260200160608152602001606081526020015f81525090565b5f604051905090565b5f80fd5b5f80fd5b5f73ffffffffffffffffffffffffffffffffffffffff82169050919050565b5f6109e3826109ba565b9050919050565b6109f3816109d9565b81146109fd575f80fd5b50565b5f81359050610a0e816109ea565b92915050565b5f819050919050565b610a2681610a14565b8114610a30575f80fd5b50565b5f81359050610a4181610a1d565b92915050565b5f8060408385031215610a5d57610a5c6109b2565b5b5f610a6a85828601610a00565b9250506020610a7b85828601610a33565b9150509250929050565b610a8e81610a14565b82525050565b5f602082019050610aa75f830184610a85565b92915050565b5f60208284031215610ac257610ac16109b2565b5b5f610acf84828501610a33565b91505092915050565b610ae1816109d9565b82525050565b5f81519050919050565b5f82825260208201905092915050565b8281835e5f83830152505050565b5f601f19601f8301169050919050565b5f610b2982610ae7565b610b338185610af1565b9350610b43818560208601610b01565b610b4c81610b0f565b840191505092915050565b5f60a082019050610b6a5f830188610ad8565b8181036020830152610b7c8187610b1f565b90508181036040830152610b908186610b1f565b90508181036060830152610ba48185610b1f565b9050610bb36080830184610a85565b9695505050505050565b5f80fd5b5f80fd5b7f4e487b71000000000000000000000000000000000000000000000000000000005f52604160045260245ffd5b610bfb82610b0f565b810181811067ffffffffffffffff82111715610c1a57610c19610bc5565b5b80604052505050565b5f610c2c6109a9565b9050610c388282610bf2565b919050565b5f67ffffffffffffffff821115610c5757610c56610bc5565b5b610c6082610b0f565b9050602081019050919050565b828183375f83830152505050565b5f610c8d610c8884610c3d565b610c23565b905082815260208101848484011115610ca957610ca8610bc1565b5b610cb4848285610c6d565b509392505050565b5f82601f830112610cd057610ccf610bbd565b5b8135610ce0848260208601610c7b565b91505092915050565b5f805f60608486031215610d0057610cff6109b2565b5b5f84013567ffffffffffffffff811115610d1d57610d1c6109b6565b5b610d2986828701610cbc565b935050602084013567ffffffffffffffff811115610d4a57610d496109b6565b5b610d5686828701610cbc565b925050604084013567ffffffffffffffff811115610d7757610d766109b6565b5b610d8386828701610cbc565b9150509250925092565b5f60208284031215610da257610da16109b2565b5b5f610daf84828501610a00565b91505092915050565b5f81519050919050565b5f82825260208201905092915050565b5f819050602082019050919050565b610dea816109d9565b82525050565b5f82825260208201905092915050565b5f610e0a82610ae7565b610e148185610df0565b9350610e24818560208601610b01565b610e2d81610b0f565b840191505092915050565b610e4181610a14565b82525050565b5f60a083015f830151610e5c5f860182610de1565b5060208301518482036020860152610e748282610e00565b91505060408301518482036040860152610e8e8282610e00565b91505060608301518482036060860152610ea88282610e00565b9150506080830151610ebd6080860182610e38565b508091505092915050565b5f610ed38383610e47565b905092915050565b5f602082019050919050565b5f610ef182610db8565b610efb8185610dc2565b935083602082028501610f0d85610dd2565b805f5b85811015610f485784840389528151610f298582610ec8565b9450610f3483610edb565b925060208a01995050600181019050610f10565b50829750879550505050505092915050565b5f6020820190508181035f830152610f728184610ee7565b905092915050565b7f4e487b71000000000000000000000000000000000000000000000000000000005f52602260045260245ffd5b5f6002820490506001821680610fbe57607f821691505b602082108103610fd157610fd0610f7a565b5b50919050565b7f4d6573736167652063616e6e6f7420626520656d7074790000000000000000005f82015250565b5f61100b601783610af1565b915061101682610fd7565b602082019050919050565b5f6020820190508181035f83015261103881610fff565b9050919050565b7f526563697069656e74206e616d652063616e6e6f7420626520656d70747900005f82015250565b5f611073601e83610af1565b915061107e8261103f565b602082019050919050565b5f6020820190508181035f8301526110a081611067565b9050919050565b7f486f6c6964617920747970652063616e6e6f7420626520656d707479000000005f82015250565b5f6110db601c83610af1565b91506110e6826110a7565b602082019050919050565b5f6020820190508181035f830152611108816110cf565b9050919050565b5f819050815f5260205f209050919050565b5f6020601f8301049050919050565b5f82821b905092915050565b5f6008830261116b7fffffffffffffffffffffffffffffffffffffffffffffffffffffffffffffffff82611130565b6111758683611130565b95508019841693508086168417925050509392505050565b5f819050919050565b5f6111b06111ab6111a684610a14565b61118d565b610a14565b9050919050565b5f819050919050565b6111c983611196565b6111dd6111d5826111b7565b84845461113c565b825550505050565b5f90565b6111f16111e5565b6111fc8184846111c0565b505050565b5b8181101561121f576112145f826111e9565b600181019050611202565b5050565b601f821115611264576112358161110f565b61123e84611121565b8101602085101561124d578190505b61126161125985611121565b830182611201565b50505b505050565b5f82821c905092915050565b5f6112845f1984600802611269565b1980831691505092915050565b5f61129c8383611275565b9150826002028217905092915050565b6112b582610ae7565b67ffffffffffffffff8111156112ce576112cd610bc5565b5b6112d88254610fa7565b6112e3828285611223565b5f60209050601f831160018114611314575f8415611302578287015190505b61130c8582611291565b865550611373565b601f1984166113228661110f565b5f5b8281101561134957848901518255600182019150602085019450602081019050611324565b868310156113665784890151611362601f891682611275565b8355505b6001600288020188555050505b505050505050565b5f6040820190508181035f8301526113938185610b1f565b905081810360208301526113a78184610b1f565b90509392505050565b7f4e487b71000000000000000000000000000000000000000000000000000000005f52603260045260245ffdfea2646970667358221220ae7f230e63869542e14355b0aaf4fa6e7b94021f39f95cc3c239036e67d95d0e64736f6c634300081a0033",
			"opcodes": "PUSH1 0x80 PUSH1 0x40 MSTORE CALLVALUE DUP1 ISZERO PUSH1 0xE JUMPI PUSH0 DUP1 REVERT JUMPDEST POP PUSH2 0x1413 DUP1 PUSH2 0x1C PUSH0 CODECOPY PUSH0 RETURN INVALID PUSH1 0x80 PUSH1 0x40 MSTORE CALLVALUE DUP1 ISZERO PUSH2 0xF JUMPI PUSH0 DUP1 REVERT JUMPDEST POP PUSH1 0x4 CALLDATASIZE LT PUSH2 0x55 JUMPI PUSH0 CALLDATALOAD PUSH1 0xE0 SHR DUP1 PUSH4 0xD5723AF EQ PUSH2 0x59 JUMPI DUP1 PUSH4 0x752C0C15 EQ PUSH2 0x89 JUMPI DUP1 PUSH4 0xB3026368 EQ PUSH2 0xBD JUMPI DUP1 PUSH4 0xB8D2CAEE EQ PUSH2 0xED JUMPI DUP1 PUSH4 0xEBA73C7C EQ PUSH2 0x10B JUMPI JUMPDEST PUSH0 DUP1 REVERT JUMPDEST PUSH2 0x73 PUSH1 0x4 DUP1 CALLDATASIZE SUB DUP2 ADD SWAP1 PUSH2 0x6E SWAP2 SWAP1 PUSH2 0xA47 JUMP JUMPDEST PUSH2 0x13B JUMP JUMPDEST PUSH1 0x40 MLOAD PUSH2 0x80 SWAP2 SWAP1 PUSH2 0xA94 JUMP JUMPDEST PUSH1 0x40 MLOAD DUP1 SWAP2 SUB SWAP1 RETURN JUMPDEST PUSH2 0xA3 PUSH1 0x4 DUP1 CALLDATASIZE SUB DUP2 ADD SWAP1 PUSH2 0x9E SWAP2 SWAP1 PUSH2 0xAAD JUMP JUMPDEST PUSH2 0x166 JUMP JUMPDEST PUSH1 0x40 MLOAD PUSH2 0xB4 SWAP6 SWAP5 SWAP4 SWAP3 SWAP2 SWAP1 PUSH2 0xB57 JUMP JUMPDEST PUSH1 0x40 MLOAD DUP1 SWAP2 SUB SWAP1 RETURN JUMPDEST PUSH2 0xD7 PUSH1 0x4 DUP1 CALLDATASIZE SUB DUP2 ADD SWAP1 PUSH2 0xD2 SWAP2 SWAP1 PUSH2 0xCE9 JUMP JUMPDEST PUSH2 0x357 JUMP JUMPDEST PUSH1 0x40 MLOAD PUSH2 0xE4 SWAP2 SWAP1 PUSH2 0xA94 JUMP JUMPDEST PUSH1 0x40 MLOAD DUP1 SWAP2 SUB SWAP1 RETURN JUMPDEST PUSH2 0xF5 PUSH2 0x5E1 JUMP JUMPDEST PUSH1 0x40 MLOAD PUSH2 0x102 SWAP2 SWAP1 PUSH2 0xA94 JUMP JUMPDEST PUSH1 0x40 MLOAD DUP1 SWAP2 SUB SWAP1 RETURN JUMPDEST PUSH2 0x125 PUSH1 0x4 DUP1 CALLDATASIZE SUB DUP2 ADD SWAP1 PUSH2 0x120 SWAP2 SWAP1 PUSH2 0xD8D JUMP JUMPDEST PUSH2 0x5EC JUMP JUMPDEST PUSH1 0x40 MLOAD PUSH2 0x132 SWAP2 SWAP1 PUSH2 0xF5A JUMP JUMPDEST PUSH1 0x40 MLOAD DUP1 SWAP2 SUB SWAP1 RETURN JUMPDEST PUSH1 0x1 PUSH1 0x20 MSTORE DUP2 PUSH0 MSTORE PUSH1 0x40 PUSH0 KECCAK256 DUP2 DUP2 SLOAD DUP2 LT PUSH2 0x154 JUMPI PUSH0 DUP1 REVERT JUMPDEST SWAP1 PUSH0 MSTORE PUSH1 0x20 PUSH0 KECCAK256 ADD PUSH0 SWAP2 POP SWAP2 POP POP SLOAD DUP2 JUMP JUMPDEST PUSH0 DUP2 DUP2 SLOAD DUP2 LT PUSH2 0x174 JUMPI PUSH0 DUP1 REVERT JUMPDEST SWAP1 PUSH0 MSTORE PUSH1 0x20 PUSH0 KECCAK256 SWAP1 PUSH1 0x5 MUL ADD PUSH0 SWAP2 POP SWAP1 POP DUP1 PUSH0 ADD PUSH0 SWAP1 SLOAD SWAP1 PUSH2 0x100 EXP SWAP1 DIV PUSH20 0xFFFFFFFFFFFFFFFFFFFFFFFFFFFFFFFFFFFFFFFF AND SWAP1 DUP1 PUSH1 0x1 ADD DUP1 SLOAD PUSH2 0x1B8 SWAP1 PUSH2 0xFA7 JUMP JUMPDEST DUP1 PUSH1 0x1F ADD PUSH1 0x20 DUP1 SWAP2 DIV MUL PUSH1 0x20 ADD PUSH1 0x40 MLOAD SWAP1 DUP2 ADD PUSH1 0x40 MSTORE DUP1 SWAP3 SWAP2 SWAP1 DUP2 DUP2 MSTORE PUSH1 0x20 ADD DUP3 DUP1 SLOAD PUSH2 0x1E4 SWAP1 PUSH2 0xFA7 JUMP JUMPDEST DUP1 ISZERO PUSH2 0x22F JUMPI DUP1 PUSH1 0x1F LT PUSH2 0x206 JUMPI PUSH2 0x100 DUP1 DUP4 SLOAD DIV MUL DUP4 MSTORE SWAP2 PUSH1 0x20 ADD SWAP2 PUSH2 0x22F JUMP JUMPDEST DUP3 ADD SWAP2 SWAP1 PUSH0 MSTORE PUSH1 0x20 PUSH0 KECCAK256 SWAP1 JUMPDEST DUP2 SLOAD DUP2 MSTORE SWAP1 PUSH1 0x1 ADD SWAP1 PUSH1 0x20 ADD DUP1 DUP4 GT PUSH2 0x212 JUMPI DUP3 SWAP1 SUB PUSH1 0x1F AND DUP3 ADD SWAP2 JUMPDEST POP POP POP POP POP SWAP1 DUP1 PUSH1 0x2 ADD DUP1 SLOAD PUSH2 0x244 SWAP1 PUSH2 0xFA7 JUMP JUMPDEST DUP1 PUSH1 0x1F ADD PUSH1 0x20 DUP1 SWAP2 DIV MUL PUSH1 0x20 ADD PUSH1 0x40 MLOAD SWAP1 DUP2 ADD PUSH1 0x40 MSTORE DUP1 SWAP3 SWAP2 SWAP1 DUP2 DUP2 MSTORE PUSH1 0x20 ADD DUP3 DUP1 SLOAD PUSH2 0x270 SWAP1 PUSH2 0xFA7 JUMP JUMPDEST DUP1 ISZERO PUSH2 0x2BB JUMPI DUP1 PUSH1 0x1F LT PUSH2 0x292 JUMPI PUSH2 0x100 DUP1 DUP4 SLOAD DIV MUL DUP4 MSTORE SWAP2 PUSH1 0x20 ADD SWAP2 PUSH2 0x2BB JUMP JUMPDEST DUP3 ADD SWAP2 SWAP1 PUSH0 MSTORE PUSH1 0x20 PUSH0 KECCAK256 SWAP1 JUMPDEST DUP2 SLOAD DUP2 MSTORE SWAP1 PUSH1 0x1 ADD SWAP1 PUSH1 0x20 ADD DUP1 DUP4 GT PUSH2 0x29E JUMPI DUP3 SWAP1 SUB PUSH1 0x1F AND DUP3 ADD SWAP2 JUMPDEST POP POP POP POP POP SWAP1 DUP1 PUSH1 0x3 ADD DUP1 SLOAD PUSH2 0x2D0 SWAP1 PUSH2 0xFA7 JUMP JUMPDEST DUP1 PUSH1 0x1F ADD PUSH1 0x20 DUP1 SWAP2 DIV MUL PUSH1 0x20 ADD PUSH1 0x40 MLOAD SWAP1 DUP2 ADD PUSH1 0x40 MSTORE DUP1 SWAP3 SWAP2 SWAP1 DUP2 DUP2 MSTORE PUSH1 0x20 ADD DUP3 DUP1 SLOAD PUSH2 0x2FC SWAP1 PUSH2 0xFA7 JUMP JUMPDEST DUP1 ISZERO PUSH2 0x347 JUMPI DUP1 PUSH1 0x1F LT PUSH2 0x31E JUMPI PUSH2 0x100 DUP1 DUP4 SLOAD DIV MUL DUP4 MSTORE SWAP2 PUSH1 0x20 ADD SWAP2 PUSH2 0x347 JUMP JUMPDEST DUP3 ADD SWAP2 SWAP1 PUSH0 MSTORE PUSH1 0x20 PUSH0 KECCAK256 SWAP1 JUMPDEST DUP2 SLOAD DUP2 MSTORE SWAP1 PUSH1 0x1 ADD SWAP1 PUSH1 0x20 ADD DUP1 DUP4 GT PUSH2 0x32A JUMPI DUP3 SWAP1 SUB PUSH1 0x1F AND DUP3 ADD SWAP2 JUMPDEST POP POP POP POP POP SWAP1 DUP1 PUSH1 0x4 ADD SLOAD SWAP1 POP DUP6 JUMP JUMPDEST PUSH0 DUP1 DUP5 MLOAD GT PUSH2 0x39B JUMPI PUSH1 0x40 MLOAD PUSH32 0x8C379A000000000000000000000000000000000000000000000000000000000 DUP2 MSTORE PUSH1 0x4 ADD PUSH2 0x392 SWAP1 PUSH2 0x1021 JUMP JUMPDEST PUSH1 0x40 MLOAD DUP1 SWAP2 SUB SWAP1 REVERT JUMPDEST PUSH0 DUP4 MLOAD GT PUSH2 0x3DE JUMPI PUSH1 0x40 MLOAD PUSH32 0x8C379A000000000000000000000000000000000000000000000000000000000 DUP2 MSTORE PUSH1 0x4 ADD PUSH2 0x3D5 SWAP1 PUSH2 0x1089 JUMP JUMPDEST PUSH1 0x40 MLOAD DUP1 SWAP2 SUB SWAP1 REVERT JUMPDEST PUSH0 DUP3 MLOAD GT PUSH2 0x421 JUMPI PUSH1 0x40 MLOAD PUSH32 0x8C379A000000000000000000000000000000000000000000000000000000000 DUP2 MSTORE PUSH1 0x4 ADD PUSH2 0x418 SWAP1 PUSH2 0x10F1 JUMP JUMPDEST PUSH1 0x40 MLOAD DUP1 SWAP2 SUB SWAP1 REVERT JUMPDEST PUSH0 PUSH1 0x40 MLOAD DUP1 PUSH1 0xA0 ADD PUSH1 0x40 MSTORE DUP1 CALLER PUSH20 0xFFFFFFFFFFFFFFFFFFFFFFFFFFFFFFFFFFFFFFFF AND DUP2 MSTORE PUSH1 0x20 ADD DUP7 DUP2 MSTORE PUSH1 0x20 ADD DUP6 DUP2 MSTORE PUSH1 0x20 ADD DUP5 DUP2 MSTORE PUSH1 0x20 ADD TIMESTAMP DUP2 MSTORE POP SWAP1 POP PUSH0 DUP1 DUP1 SLOAD SWAP1 POP SWAP1 POP PUSH0 DUP3 SWAP1 DUP1 PUSH1 0x1 DUP2 SLOAD ADD DUP1 DUP3 SSTORE DUP1 SWAP2 POP POP PUSH1 0x1 SWAP1 SUB SWAP1 PUSH0 MSTORE PUSH1 0x20 PUSH0 KECCAK256 SWAP1 PUSH1 0x5 MUL ADD PUSH0 SWAP1 SWAP2 SWAP1 SWAP2 SWAP1 SWAP2 POP PUSH0 DUP3 ADD MLOAD DUP2 PUSH0 ADD PUSH0 PUSH2 0x100 EXP DUP2 SLOAD DUP2 PUSH20 0xFFFFFFFFFFFFFFFFFFFFFFFFFFFFFFFFFFFFFFFF MUL NOT AND SWAP1 DUP4 PUSH20 0xFFFFFFFFFFFFFFFFFFFFFFFFFFFFFFFFFFFFFFFF AND MUL OR SWAP1 SSTORE POP PUSH1 0x20 DUP3 ADD MLOAD DUP2 PUSH1 0x1 ADD SWAP1 DUP2 PUSH2 0x4EA SWAP2 SWAP1 PUSH2 0x12AC JUMP JUMPDEST POP PUSH1 0x40 DUP3 ADD MLOAD DUP2 PUSH1 0x2 ADD SWAP1 DUP2 PUSH2 0x500 SWAP2 SWAP1 PUSH2 0x12AC JUMP JUMPDEST POP PUSH1 0x60 DUP3 ADD MLOAD DUP2 PUSH1 0x3 ADD SWAP1 DUP2 PUSH2 0x516 SWAP2 SWAP1 PUSH2 0x12AC JUMP JUMPDEST POP PUSH1 0x80 DUP3 ADD MLOAD DUP2 PUSH1 0x4 ADD SSTORE POP POP PUSH1 0x1 PUSH0 CALLER PUSH20 0xFFFFFFFFFFFFFFFFFFFFFFFFFFFFFFFFFFFFFFFF AND PUSH20 0xFFFFFFFFFFFFFFFFFFFFFFFFFFFFFFFFFFFFFFFF AND DUP2 MSTORE PUSH1 0x20 ADD SWAP1 DUP2 MSTORE PUSH1 0x20 ADD PUSH0 KECCAK256 DUP2 SWAP1 DUP1 PUSH1 0x1 DUP2 SLOAD ADD DUP1 DUP3 SSTORE DUP1 SWAP2 POP POP PUSH1 0x1 SWAP1 SUB SWAP1 PUSH0 MSTORE PUSH1 0x20 PUSH0 KECCAK256 ADD PUSH0 SWAP1 SWAP2 SWAP1 SWAP2 SWAP1 SWAP2 POP SSTORE CALLER PUSH20 0xFFFFFFFFFFFFFFFFFFFFFFFFFFFFFFFFFFFFFFFF AND DUP2 PUSH32 0x9394DACDFB781605E27C4BF5B7BF8A7E3ABACB7086D4D35CE8F51182407B0F1 DUP8 DUP8 PUSH1 0x40 MLOAD PUSH2 0x5CD SWAP3 SWAP2 SWAP1 PUSH2 0x137B JUMP JUMPDEST PUSH1 0x40 MLOAD DUP1 SWAP2 SUB SWAP1 LOG3 DUP1 SWAP3 POP POP POP SWAP4 SWAP3 POP POP POP JUMP JUMPDEST PUSH0 DUP1 DUP1 SLOAD SWAP1 POP SWAP1 POP SWAP1 JUMP JUMPDEST PUSH1 0x60 PUSH0 PUSH1 0x1 PUSH0 DUP5 PUSH20 0xFFFFFFFFFFFFFFFFFFFFFFFFFFFFFFFFFFFFFFFF AND PUSH20 0xFFFFFFFFFFFFFFFFFFFFFFFFFFFFFFFFFFFFFFFF AND DUP2 MSTORE PUSH1 0x20 ADD SWAP1 DUP2 MSTORE PUSH1 0x20 ADD PUSH0 KECCAK256 DUP1 SLOAD DUP1 PUSH1 0x20 MUL PUSH1 0x20 ADD PUSH1 0x40 MLOAD SWAP1 DUP2 ADD PUSH1 0x40 MSTORE DUP1 SWAP3 SWAP2 SWAP1 DUP2 DUP2 MSTORE PUSH1 0x20 ADD DUP3 DUP1 SLOAD DUP1 ISZERO PUSH2 0x674 JUMPI PUSH1 0x20 MUL DUP3 ADD SWAP2 SWAP1 PUSH0 MSTORE PUSH1 0x20 PUSH0 KECCAK256 SWAP1 JUMPDEST DUP2 SLOAD DUP2 MSTORE PUSH1 0x20 ADD SWAP1 PUSH1 0x1 ADD SWAP1 DUP1 DUP4 GT PUSH2 0x660 JUMPI JUMPDEST POP POP POP POP POP SWAP1 POP PUSH0 DUP2 MLOAD PUSH8 0xFFFFFFFFFFFFFFFF DUP2 GT ISZERO PUSH2 0x697 JUMPI PUSH2 0x696 PUSH2 0xBC5 JUMP JUMPDEST JUMPDEST PUSH1 0x40 MLOAD SWAP1 DUP1 DUP3 MSTORE DUP1 PUSH1 0x20 MUL PUSH1 0x20 ADD DUP3 ADD PUSH1 0x40 MSTORE DUP1 ISZERO PUSH2 0x6D0 JUMPI DUP2 PUSH1 0x20 ADD JUMPDEST PUSH2 0x6BD PUSH2 0x966 JUMP JUMPDEST DUP2 MSTORE PUSH1 0x20 ADD SWAP1 PUSH1 0x1 SWAP1 SUB SWAP1 DUP2 PUSH2 0x6B5 JUMPI SWAP1 POP JUMPDEST POP SWAP1 POP PUSH0 JUMPDEST DUP3 MLOAD DUP2 LT ISZERO PUSH2 0x95B JUMPI PUSH0 DUP4 DUP3 DUP2 MLOAD DUP2 LT PUSH2 0x6F2 JUMPI PUSH2 0x6F1 PUSH2 0x13B0 JUMP JUMPDEST JUMPDEST PUSH1 0x20 MUL PUSH1 0x20 ADD ADD MLOAD DUP2 SLOAD DUP2 LT PUSH2 0x70B JUMPI PUSH2 0x70A PUSH2 0x13B0 JUMP JUMPDEST JUMPDEST SWAP1 PUSH0 MSTORE PUSH1 0x20 PUSH0 KECCAK256 SWAP1 PUSH1 0x5 MUL ADD PUSH1 0x40 MLOAD DUP1 PUSH1 0xA0 ADD PUSH1 0x40 MSTORE SWAP1 DUP2 PUSH0 DUP3 ADD PUSH0 SWAP1 SLOAD SWAP1 PUSH2 0x100 EXP SWAP1 DIV PUSH20 0xFFFFFFFFFFFFFFFFFFFFFFFFFFFFFFFFFFFFFFFF AND PUSH20 0xFFFFFFFFFFFFFFFFFFFFFFFFFFFFFFFFFFFFFFFF AND PUSH20 0xFFFFFFFFFFFFFFFFFFFFFFFFFFFFFFFFFFFFFFFF AND DUP2 MSTORE PUSH1 0x20 ADD PUSH1 0x1 DUP3 ADD DUP1 SLOAD PUSH2 0x786 SWAP1 PUSH2 0xFA7 JUMP JUMPDEST DUP1 PUSH1 0x1F ADD PUSH1 0x20 DUP1 SWAP2 DIV MUL PUSH1 0x20 ADD PUSH1 0x40 MLOAD SWAP1 DUP2 ADD PUSH1 0x40 MSTORE DUP1 SWAP3 SWAP2 SWAP1 DUP2 DUP2 MSTORE PUSH1 0x20 ADD DUP3 DUP1 SLOAD PUSH2 0x7B2 SWAP1 PUSH2 0xFA7 JUMP JUMPDEST DUP1 ISZERO PUSH2 0x7FD JUMPI DUP1 PUSH1 0x1F LT PUSH2 0x7D4 JUMPI PUSH2 0x100 DUP1 DUP4 SLOAD DIV MUL DUP4 MSTORE SWAP2 PUSH1 0x20 ADD SWAP2 PUSH2 0x7FD JUMP JUMPDEST DUP3 ADD SWAP2 SWAP1 PUSH0 MSTORE PUSH1 0x20 PUSH0 KECCAK256 SWAP1 JUMPDEST DUP2 SLOAD DUP2 MSTORE SWAP1 PUSH1 0x1 ADD SWAP1 PUSH1 0x20 ADD DUP1 DUP4 GT PUSH2 0x7E0 JUMPI DUP3 SWAP1 SUB PUSH1 0x1F AND DUP3 ADD SWAP2 JUMPDEST POP POP POP POP POP DUP2 MSTORE PUSH1 0x20 ADD PUSH1 0x2 DUP3 ADD DUP1 SLOAD PUSH2 0x816 SWAP1 PUSH2 0xFA7 JUMP JUMPDEST DUP1 PUSH1 0x1F ADD PUSH1 0x20 DUP1 SWAP2 DIV MUL PUSH1 0x20 ADD PUSH1 0x40 MLOAD SWAP1 DUP2 ADD PUSH1 0x40 MSTORE DUP1 SWAP3 SWAP2 SWAP1 DUP2 DUP2 MSTORE PUSH1 0x20 ADD DUP3 DUP1 SLOAD PUSH2 0x842 SWAP1 PUSH2 0xFA7 JUMP JUMPDEST DUP1 ISZERO PUSH2 0x88D JUMPI DUP1 PUSH1 0x1F LT PUSH2 0x864 JUMPI PUSH2 0x100 DUP1 DUP4 SLOAD DIV MUL DUP4 MSTORE SWAP2 PUSH1 0x20 ADD SWAP2 PUSH2 0x88D JUMP JUMPDEST DUP3 ADD SWAP2 SWAP1 PUSH0 MSTORE PUSH1 0x20 PUSH0 KECCAK256 SWAP1 JUMPDEST DUP2 SLOAD DUP2 MSTORE SWAP1 PUSH1 0x1 ADD SWAP1 PUSH1 0x20 ADD DUP1 DUP4 GT PUSH2 0x870 JUMPI DUP3 SWAP1 SUB PUSH1 0x1F AND DUP3 ADD SWAP2 JUMPDEST POP POP POP POP POP DUP2 MSTORE PUSH1 0x20 ADD PUSH1 0x3 DUP3 ADD DUP1 SLOAD PUSH2 0x8A6 SWAP1 PUSH2 0xFA7 JUMP JUMPDEST DUP1 PUSH1 0x1F ADD PUSH1 0x20 DUP1 SWAP2 DIV MUL PUSH1 0x20 ADD PUSH1 0x40 MLOAD SWAP1 DUP2 ADD PUSH1 0x40 MSTORE DUP1 SWAP3 SWAP2 SWAP1 DUP2 DUP2 MSTORE PUSH1 0x20 ADD DUP3 DUP1 SLOAD PUSH2 0x8D2 SWAP1 PUSH2 0xFA7 JUMP JUMPDEST DUP1 ISZERO PUSH2 0x91D JUMPI DUP1 PUSH1 0x1F LT PUSH2 0x8F4 JUMPI PUSH2 0x100 DUP1 DUP4 SLOAD DIV MUL DUP4 MSTORE SWAP2 PUSH1 0x20 ADD SWAP2 PUSH2 0x91D JUMP JUMPDEST DUP3 ADD SWAP2 SWAP1 PUSH0 MSTORE PUSH1 0x20 PUSH0 KECCAK256 SWAP1 JUMPDEST DUP2 SLOAD DUP2 MSTORE SWAP1 PUSH1 0x1 ADD SWAP1 PUSH1 0x20 ADD DUP1 DUP4 GT PUSH2 0x900 JUMPI DUP3 SWAP1 SUB PUSH1 0x1F AND DUP3 ADD SWAP2 JUMPDEST POP POP POP POP POP DUP2 MSTORE PUSH1 0x20 ADD PUSH1 0x4 DUP3 ADD SLOAD DUP2 MSTORE POP POP DUP3 DUP3 DUP2 MLOAD DUP2 LT PUSH2 0x943 JUMPI PUSH2 0x942 PUSH2 0x13B0 JUMP JUMPDEST JUMPDEST PUSH1 0x20 MUL PUSH1 0x20 ADD ADD DUP2 SWAP1 MSTORE POP DUP1 DUP1 PUSH1 0x1 ADD SWAP2 POP POP PUSH2 0x6D5 JUMP JUMPDEST POP DUP1 SWAP3 POP POP POP SWAP2 SWAP1 POP JUMP JUMPDEST PUSH1 0x40 MLOAD DUP1 PUSH1 0xA0 ADD PUSH1 0x40 MSTORE DUP1 PUSH0 PUSH20 0xFFFFFFFFFFFFFFFFFFFFFFFFFFFFFFFFFFFFFFFF AND DUP2 MSTORE PUSH1 0x20 ADD PUSH1 0x60 DUP2 MSTORE PUSH1 0x20 ADD PUSH1 0x60 DUP2 MSTORE PUSH1 0x20 ADD PUSH1 0x60 DUP2 MSTORE PUSH1 0x20 ADD PUSH0 DUP2 MSTORE POP SWAP1 JUMP JUMPDEST PUSH0 PUSH1 0x40 MLOAD SWAP1 POP SWAP1 JUMP JUMPDEST PUSH0 DUP1 REVERT JUMPDEST PUSH0 DUP1 REVERT JUMPDEST PUSH0 PUSH20 0xFFFFFFFFFFFFFFFFFFFFFFFFFFFFFFFFFFFFFFFF DUP3 AND SWAP1 POP SWAP2 SWAP1 POP JUMP JUMPDEST PUSH0 PUSH2 0x9E3 DUP3 PUSH2 0x9BA JUMP JUMPDEST SWAP1 POP SWAP2 SWAP1 POP JUMP JUMPDEST PUSH2 0x9F3 DUP2 PUSH2 0x9D9 JUMP JUMPDEST DUP2 EQ PUSH2 0x9FD JUMPI PUSH0 DUP1 REVERT JUMPDEST POP JUMP JUMPDEST PUSH0 DUP2 CALLDATALOAD SWAP1 POP PUSH2 0xA0E DUP2 PUSH2 0x9EA JUMP JUMPDEST SWAP3 SWAP2 POP POP JUMP JUMPDEST PUSH0 DUP2 SWAP1 POP SWAP2 SWAP1 POP JUMP JUMPDEST PUSH2 0xA26 DUP2 PUSH2 0xA14 JUMP JUMPDEST DUP2 EQ PUSH2 0xA30 JUMPI PUSH0 DUP1 REVERT JUMPDEST POP JUMP JUMPDEST PUSH0 DUP2 CALLDATALOAD SWAP1 POP PUSH2 0xA41 DUP2 PUSH2 0xA1D JUMP JUMPDEST SWAP3 SWAP2 POP POP JUMP JUMPDEST PUSH0 DUP1 PUSH1 0x40 DUP4 DUP6 SUB SLT ISZERO PUSH2 0xA5D JUMPI PUSH2 0xA5C PUSH2 0x9B2 JUMP JUMPDEST JUMPDEST PUSH0 PUSH2 0xA6A DUP6 DUP3 DUP7 ADD PUSH2 0xA00 JUMP JUMPDEST SWAP3 POP POP PUSH1 0x20 PUSH2 0xA7B DUP6 DUP3 DUP7 ADD PUSH2 0xA33 JUMP JUMPDEST SWAP2 POP POP SWAP3 POP SWAP3 SWAP1 POP JUMP JUMPDEST PUSH2 0xA8E DUP2 PUSH2 0xA14 JUMP JUMPDEST DUP3 MSTORE POP POP JUMP JUMPDEST PUSH0 PUSH1 0x20 DUP3 ADD SWAP1 POP PUSH2 0xAA7 PUSH0 DUP4 ADD DUP5 PUSH2 0xA85 JUMP JUMPDEST SWAP3 SWAP2 POP POP JUMP JUMPDEST PUSH0 PUSH1 0x20 DUP3 DUP5 SUB SLT ISZERO PUSH2 0xAC2 JUMPI PUSH2 0xAC1 PUSH2 0x9B2 JUMP JUMPDEST JUMPDEST PUSH0 PUSH2 0xACF DUP5 DUP3 DUP6 ADD PUSH2 0xA33 JUMP JUMPDEST SWAP2 POP POP SWAP3 SWAP2 POP POP JUMP JUMPDEST PUSH2 0xAE1 DUP2 PUSH2 0x9D9 JUMP JUMPDEST DUP3 MSTORE POP POP JUMP JUMPDEST PUSH0 DUP2 MLOAD SWAP1 POP SWAP2 SWAP1 POP JUMP JUMPDEST PUSH0 DUP3 DUP3 MSTORE PUSH1 0x20 DUP3 ADD SWAP1 POP SWAP3 SWAP2 POP POP JUMP JUMPDEST DUP3 DUP2 DUP4 MCOPY PUSH0 DUP4 DUP4 ADD MSTORE POP POP POP JUMP JUMPDEST PUSH0 PUSH1 0x1F NOT PUSH1 0x1F DUP4 ADD AND SWAP1 POP SWAP2 SWAP1 POP JUMP JUMPDEST PUSH0 PUSH2 0xB29 DUP3 PUSH2 0xAE7 JUMP JUMPDEST PUSH2 0xB33 DUP2 DUP6 PUSH2 0xAF1 JUMP JUMPDEST SWAP4 POP PUSH2 0xB43 DUP2 DUP6 PUSH1 0x20 DUP7 ADD PUSH2 0xB01 JUMP JUMPDEST PUSH2 0xB4C DUP2 PUSH2 0xB0F JUMP JUMPDEST DUP5 ADD SWAP2 POP POP SWAP3 SWAP2 POP POP JUMP JUMPDEST PUSH0 PUSH1 0xA0 DUP3 ADD SWAP1 POP PUSH2 0xB6A PUSH0 DUP4 ADD DUP9 PUSH2 0xAD8 JUMP JUMPDEST DUP2 DUP2 SUB PUSH1 0x20 DUP4 ADD MSTORE PUSH2 0xB7C DUP2 DUP8 PUSH2 0xB1F JUMP JUMPDEST SWAP1 POP DUP2 DUP2 SUB PUSH1 0x40 DUP4 ADD MSTORE PUSH2 0xB90 DUP2 DUP7 PUSH2 0xB1F JUMP JUMPDEST SWAP1 POP DUP2 DUP2 SUB PUSH1 0x60 DUP4 ADD MSTORE PUSH2 0xBA4 DUP2 DUP6 PUSH2 0xB1F JUMP JUMPDEST SWAP1 POP PUSH2 0xBB3 PUSH1 0x80 DUP4 ADD DUP5 PUSH2 0xA85 JUMP JUMPDEST SWAP7 SWAP6 POP POP POP POP POP POP JUMP JUMPDEST PUSH0 DUP1 REVERT JUMPDEST PUSH0 DUP1 REVERT JUMPDEST PUSH32 0x4E487B7100000000000000000000000000000000000000000000000000000000 PUSH0 MSTORE PUSH1 0x41 PUSH1 0x4 MSTORE PUSH1 0x24 PUSH0 REVERT JUMPDEST PUSH2 0xBFB DUP3 PUSH2 0xB0F JUMP JUMPDEST DUP2 ADD DUP2 DUP2 LT PUSH8 0xFFFFFFFFFFFFFFFF DUP3 GT OR ISZERO PUSH2 0xC1A JUMPI PUSH2 0xC19 PUSH2 0xBC5 JUMP JUMPDEST JUMPDEST DUP1 PUSH1 0x40 MSTORE POP POP POP JUMP JUMPDEST PUSH0 PUSH2 0xC2C PUSH2 0x9A9 JUMP JUMPDEST SWAP1 POP PUSH2 0xC38 DUP3 DUP3 PUSH2 0xBF2 JUMP JUMPDEST SWAP2 SWAP1 POP JUMP JUMPDEST PUSH0 PUSH8 0xFFFFFFFFFFFFFFFF DUP3 GT ISZERO PUSH2 0xC57 JUMPI PUSH2 0xC56 PUSH2 0xBC5 JUMP JUMPDEST JUMPDEST PUSH2 0xC60 DUP3 PUSH2 0xB0F JUMP JUMPDEST SWAP1 POP PUSH1 0x20 DUP2 ADD SWAP1 POP SWAP2 SWAP1 POP JUMP JUMPDEST DUP3 DUP2 DUP4 CALLDATACOPY PUSH0 DUP4 DUP4 ADD MSTORE POP POP POP JUMP JUMPDEST PUSH0 PUSH2 0xC8D PUSH2 0xC88 DUP5 PUSH2 0xC3D JUMP JUMPDEST PUSH2 0xC23 JUMP JUMPDEST SWAP1 POP DUP3 DUP2 MSTORE PUSH1 0x20 DUP2 ADD DUP5 DUP5 DUP5 ADD GT ISZERO PUSH2 0xCA9 JUMPI PUSH2 0xCA8 PUSH2 0xBC1 JUMP JUMPDEST JUMPDEST PUSH2 0xCB4 DUP5 DUP3 DUP6 PUSH2 0xC6D JUMP JUMPDEST POP SWAP4 SWAP3 POP POP POP JUMP JUMPDEST PUSH0 DUP3 PUSH1 0x1F DUP4 ADD SLT PUSH2 0xCD0 JUMPI PUSH2 0xCCF PUSH2 0xBBD JUMP JUMPDEST JUMPDEST DUP2 CALLDATALOAD PUSH2 0xCE0 DUP5 DUP3 PUSH1 0x20 DUP7 ADD PUSH2 0xC7B JUMP JUMPDEST SWAP2 POP POP SWAP3 SWAP2 POP POP JUMP JUMPDEST PUSH0 DUP1 PUSH0 PUSH1 0x60 DUP5 DUP7 SUB SLT ISZERO PUSH2 0xD00 JUMPI PUSH2 0xCFF PUSH2 0x9B2 JUMP JUMPDEST JUMPDEST PUSH0 DUP5 ADD CALLDATALOAD PUSH8 0xFFFFFFFFFFFFFFFF DUP2 GT ISZERO PUSH2 0xD1D JUMPI PUSH2 0xD1C PUSH2 0x9B6 JUMP JUMPDEST JUMPDEST PUSH2 0xD29 DUP7 DUP3 DUP8 ADD PUSH2 0xCBC JUMP JUMPDEST SWAP4 POP POP PUSH1 0x20 DUP5 ADD CALLDATALOAD PUSH8 0xFFFFFFFFFFFFFFFF DUP2 GT ISZERO PUSH2 0xD4A JUMPI PUSH2 0xD49 PUSH2 0x9B6 JUMP JUMPDEST JUMPDEST PUSH2 0xD56 DUP7 DUP3 DUP8 ADD PUSH2 0xCBC JUMP JUMPDEST SWAP3 POP POP PUSH1 0x40 DUP5 ADD CALLDATALOAD PUSH8 0xFFFFFFFFFFFFFFFF DUP2 GT ISZERO PUSH2 0xD77 JUMPI PUSH2 0xD76 PUSH2 0x9B6 JUMP JUMPDEST JUMPDEST PUSH2 0xD83 DUP7 DUP3 DUP8 ADD PUSH2 0xCBC JUMP JUMPDEST SWAP2 POP POP SWAP3 POP SWAP3 POP SWAP3 JUMP JUMPDEST PUSH0 PUSH1 0x20 DUP3 DUP5 SUB SLT ISZERO PUSH2 0xDA2 JUMPI PUSH2 0xDA1 PUSH2 0x9B2 JUMP JUMPDEST JUMPDEST PUSH0 PUSH2 0xDAF DUP5 DUP3 DUP6 ADD PUSH2 0xA00 JUMP JUMPDEST SWAP2 POP POP SWAP3 SWAP2 POP POP JUMP JUMPDEST PUSH0 DUP2 MLOAD SWAP1 POP SWAP2 SWAP1 POP JUMP JUMPDEST PUSH0 DUP3 DUP3 MSTORE PUSH1 0x20 DUP3 ADD SWAP1 POP SWAP3 SWAP2 POP POP JUMP JUMPDEST PUSH0 DUP2 SWAP1 POP PUSH1 0x20 DUP3 ADD SWAP1 POP SWAP2 SWAP1 POP JUMP JUMPDEST PUSH2 0xDEA DUP2 PUSH2 0x9D9 JUMP JUMPDEST DUP3 MSTORE POP POP JUMP JUMPDEST PUSH0 DUP3 DUP3 MSTORE PUSH1 0x20 DUP3 ADD SWAP1 POP SWAP3 SWAP2 POP POP JUMP JUMPDEST PUSH0 PUSH2 0xE0A DUP3 PUSH2 0xAE7 JUMP JUMPDEST PUSH2 0xE14 DUP2 DUP6 PUSH2 0xDF0 JUMP JUMPDEST SWAP4 POP PUSH2 0xE24 DUP2 DUP6 PUSH1 0x20 DUP7 ADD PUSH2 0xB01 JUMP JUMPDEST PUSH2 0xE2D DUP2 PUSH2 0xB0F JUMP JUMPDEST DUP5 ADD SWAP2 POP POP SWAP3 SWAP2 POP POP JUMP JUMPDEST PUSH2 0xE41 DUP2 PUSH2 0xA14 JUMP JUMPDEST DUP3 MSTORE POP POP JUMP JUMPDEST PUSH0 PUSH1 0xA0 DUP4 ADD PUSH0 DUP4 ADD MLOAD PUSH2 0xE5C PUSH0 DUP7 ADD DUP3 PUSH2 0xDE1 JUMP JUMPDEST POP PUSH1 0x20 DUP4 ADD MLOAD DUP5 DUP3 SUB PUSH1 0x20 DUP7 ADD MSTORE PUSH2 0xE74 DUP3 DUP3 PUSH2 0xE00 JUMP JUMPDEST SWAP2 POP POP PUSH1 0x40 DUP4 ADD MLOAD DUP5 DUP3 SUB PUSH1 0x40 DUP7 ADD MSTORE PUSH2 0xE8E DUP3 DUP3 PUSH2 0xE00 JUMP JUMPDEST SWAP2 POP POP PUSH1 0x60 DUP4 ADD MLOAD DUP5 DUP3 SUB PUSH1 0x60 DUP7 ADD MSTORE PUSH2 0xEA8 DUP3 DUP3 PUSH2 0xE00 JUMP JUMPDEST SWAP2 POP POP PUSH1 0x80 DUP4 ADD MLOAD PUSH2 0xEBD PUSH1 0x80 DUP7 ADD DUP3 PUSH2 0xE38 JUMP JUMPDEST POP DUP1 SWAP2 POP POP SWAP3 SWAP2 POP POP JUMP JUMPDEST PUSH0 PUSH2 0xED3 DUP4 DUP4 PUSH2 0xE47 JUMP JUMPDEST SWAP1 POP SWAP3 SWAP2 POP POP JUMP JUMPDEST PUSH0 PUSH1 0x20 DUP3 ADD SWAP1 POP SWAP2 SWAP1 POP JUMP JUMPDEST PUSH0 PUSH2 0xEF1 DUP3 PUSH2 0xDB8 JUMP JUMPDEST PUSH2 0xEFB DUP2 DUP6 PUSH2 0xDC2 JUMP JUMPDEST SWAP4 POP DUP4 PUSH1 0x20 DUP3 MUL DUP6 ADD PUSH2 0xF0D DUP6 PUSH2 0xDD2 JUMP JUMPDEST DUP1 PUSH0 JUMPDEST DUP6 DUP2 LT ISZERO PUSH2 0xF48 JUMPI DUP5 DUP5 SUB DUP10 MSTORE DUP2 MLOAD PUSH2 0xF29 DUP6 DUP3 PUSH2 0xEC8 JUMP JUMPDEST SWAP5 POP PUSH2 0xF34 DUP4 PUSH2 0xEDB JUMP JUMPDEST SWAP3 POP PUSH1 0x20 DUP11 ADD SWAP10 POP POP PUSH1 0x1 DUP2 ADD SWAP1 POP PUSH2 0xF10 JUMP JUMPDEST POP DUP3 SWAP8 POP DUP8 SWAP6 POP POP POP POP POP POP SWAP3 SWAP2 POP POP JUMP JUMPDEST PUSH0 PUSH1 0x20 DUP3 ADD SWAP1 POP DUP2 DUP2 SUB PUSH0 DUP4 ADD MSTORE PUSH2 0xF72 DUP2 DUP5 PUSH2 0xEE7 JUMP JUMPDEST SWAP1 POP SWAP3 SWAP2 POP POP JUMP JUMPDEST PUSH32 0x4E487B7100000000000000000000000000000000000000000000000000000000 PUSH0 MSTORE PUSH1 0x22 PUSH1 0x4 MSTORE PUSH1 0x24 PUSH0 REVERT JUMPDEST PUSH0 PUSH1 0x2 DUP3 DIV SWAP1 POP PUSH1 0x1 DUP3 AND DUP1 PUSH2 0xFBE JUMPI PUSH1 0x7F DUP3 AND SWAP2 POP JUMPDEST PUSH1 0x20 DUP3 LT DUP2 SUB PUSH2 0xFD1 JUMPI PUSH2 0xFD0 PUSH2 0xF7A JUMP JUMPDEST JUMPDEST POP SWAP2 SWAP1 POP JUMP JUMPDEST PUSH32 0x4D6573736167652063616E6E6F7420626520656D707479000000000000000000 PUSH0 DUP3 ADD MSTORE POP JUMP JUMPDEST PUSH0 PUSH2 0x100B PUSH1 0x17 DUP4 PUSH2 0xAF1 JUMP JUMPDEST SWAP2 POP PUSH2 0x1016 DUP3 PUSH2 0xFD7 JUMP JUMPDEST PUSH1 0x20 DUP3 ADD SWAP1 POP SWAP2 SWAP1 POP JUMP JUMPDEST PUSH0 PUSH1 0x20 DUP3 ADD SWAP1 POP DUP2 DUP2 SUB PUSH0 DUP4 ADD MSTORE PUSH2 0x1038 DUP2 PUSH2 0xFFF JUMP JUMPDEST SWAP1 POP SWAP2 SWAP1 POP JUMP JUMPDEST PUSH32 0x526563697069656E74206E616D652063616E6E6F7420626520656D7074790000 PUSH0 DUP3 ADD MSTORE POP JUMP JUMPDEST PUSH0 PUSH2 0x1073 PUSH1 0x1E DUP4 PUSH2 0xAF1 JUMP JUMPDEST SWAP2 POP PUSH2 0x107E DUP3 PUSH2 0x103F JUMP JUMPDEST PUSH1 0x20 DUP3 ADD SWAP1 POP SWAP2 SWAP1 POP JUMP JUMPDEST PUSH0 PUSH1 0x20 DUP3 ADD SWAP1 POP DUP2 DUP2 SUB PUSH0 DUP4 ADD MSTORE PUSH2 0x10A0 DUP2 PUSH2 0x1067 JUMP JUMPDEST SWAP1 POP SWAP2 SWAP1 POP JUMP JUMPDEST PUSH32 0x486F6C6964617920747970652063616E6E6F7420626520656D70747900000000 PUSH0 DUP3 ADD MSTORE POP JUMP JUMPDEST PUSH0 PUSH2 0x10DB PUSH1 0x1C DUP4 PUSH2 0xAF1 JUMP JUMPDEST SWAP2 POP PUSH2 0x10E6 DUP3 PUSH2 0x10A7 JUMP JUMPDEST PUSH1 0x20 DUP3 ADD SWAP1 POP SWAP2 SWAP1 POP JUMP JUMPDEST PUSH0 PUSH1 0x20 DUP3 ADD SWAP1 POP DUP2 DUP2 SUB PUSH0 DUP4 ADD MSTORE PUSH2 0x1108 DUP2 PUSH2 0x10CF JUMP JUMPDEST SWAP1 POP SWAP2 SWAP1 POP JUMP JUMPDEST PUSH0 DUP2 SWAP1 POP DUP2 PUSH0 MSTORE PUSH1 0x20 PUSH0 KECCAK256 SWAP1 POP SWAP2 SWAP1 POP JUMP JUMPDEST PUSH0 PUSH1 0x20 PUSH1 0x1F DUP4 ADD DIV SWAP1 POP SWAP2 SWAP1 POP JUMP JUMPDEST PUSH0 DUP3 DUP3 SHL SWAP1 POP SWAP3 SWAP2 POP POP JUMP JUMPDEST PUSH0 PUSH1 0x8 DUP4 MUL PUSH2 0x116B PUSH32 0xFFFFFFFFFFFFFFFFFFFFFFFFFFFFFFFFFFFFFFFFFFFFFFFFFFFFFFFFFFFFFFFF DUP3 PUSH2 0x1130 JUMP JUMPDEST PUSH2 0x1175 DUP7 DUP4 PUSH2 0x1130 JUMP JUMPDEST SWAP6 POP DUP1 NOT DUP5 AND SWAP4 POP DUP1 DUP7 AND DUP5 OR SWAP3 POP POP POP SWAP4 SWAP3 POP POP POP JUMP JUMPDEST PUSH0 DUP2 SWAP1 POP SWAP2 SWAP1 POP JUMP JUMPDEST PUSH0 PUSH2 0x11B0 PUSH2 0x11AB PUSH2 0x11A6 DUP5 PUSH2 0xA14 JUMP JUMPDEST PUSH2 0x118D JUMP JUMPDEST PUSH2 0xA14 JUMP JUMPDEST SWAP1 POP SWAP2 SWAP1 POP JUMP JUMPDEST PUSH0 DUP2 SWAP1 POP SWAP2 SWAP1 POP JUMP JUMPDEST PUSH2 0x11C9 DUP4 PUSH2 0x1196 JUMP JUMPDEST PUSH2 0x11DD PUSH2 0x11D5 DUP3 PUSH2 0x11B7 JUMP JUMPDEST DUP5 DUP5 SLOAD PUSH2 0x113C JUMP JUMPDEST DUP3 SSTORE POP POP POP POP JUMP JUMPDEST PUSH0 SWAP1 JUMP JUMPDEST PUSH2 0x11F1 PUSH2 0x11E5 JUMP JUMPDEST PUSH2 0x11FC DUP2 DUP5 DUP5 PUSH2 0x11C0 JUMP JUMPDEST POP POP POP JUMP JUMPDEST JUMPDEST DUP2 DUP2 LT ISZERO PUSH2 0x121F JUMPI PUSH2 0x1214 PUSH0 DUP3 PUSH2 0x11E9 JUMP JUMPDEST PUSH1 0x1 DUP2 ADD SWAP1 POP PUSH2 0x1202 JUMP JUMPDEST POP POP JUMP JUMPDEST PUSH1 0x1F DUP3 GT ISZERO PUSH2 0x1264 JUMPI PUSH2 0x1235 DUP2 PUSH2 0x110F JUMP JUMPDEST PUSH2 0x123E DUP5 PUSH2 0x1121 JUMP JUMPDEST DUP2 ADD PUSH1 0x20 DUP6 LT ISZERO PUSH2 0x124D JUMPI DUP2 SWAP1 POP JUMPDEST PUSH2 0x1261 PUSH2 0x1259 DUP6 PUSH2 0x1121 JUMP JUMPDEST DUP4 ADD DUP3 PUSH2 0x1201 JUMP JUMPDEST POP POP JUMPDEST POP POP POP JUMP JUMPDEST PUSH0 DUP3 DUP3 SHR SWAP1 POP SWAP3 SWAP2 POP POP JUMP JUMPDEST PUSH0 PUSH2 0x1284 PUSH0 NOT DUP5 PUSH1 0x8 MUL PUSH2 0x1269 JUMP JUMPDEST NOT DUP1 DUP4 AND SWAP2 POP POP SWAP3 SWAP2 POP POP JUMP JUMPDEST PUSH0 PUSH2 0x129C DUP4 DUP4 PUSH2 0x1275 JUMP JUMPDEST SWAP2 POP DUP3 PUSH1 0x2 MUL DUP3 OR SWAP1 POP SWAP3 SWAP2 POP POP JUMP JUMPDEST PUSH2 0x12B5 DUP3 PUSH2 0xAE7 JUMP JUMPDEST PUSH8 0xFFFFFFFFFFFFFFFF DUP2 GT ISZERO PUSH2 0x12CE JUMPI PUSH2 0x12CD PUSH2 0xBC5 JUMP JUMPDEST JUMPDEST PUSH2 0x12D8 DUP3 SLOAD PUSH2 0xFA7 JUMP JUMPDEST PUSH2 0x12E3 DUP3 DUP3 DUP6 PUSH2 0x1223 JUMP JUMPDEST PUSH0 PUSH1 0x20 SWAP1 POP PUSH1 0x1F DUP4 GT PUSH1 0x1 DUP2 EQ PUSH2 0x1314 JUMPI PUSH0 DUP5 ISZERO PUSH2 0x1302 JUMPI DUP3 DUP8 ADD MLOAD SWAP1 POP JUMPDEST PUSH2 0x130C DUP6 DUP3 PUSH2 0x1291 JUMP JUMPDEST DUP7 SSTORE POP PUSH2 0x1373 JUMP JUMPDEST PUSH1 0x1F NOT DUP5 AND PUSH2 0x1322 DUP7 PUSH2 0x110F JUMP JUMPDEST PUSH0 JUMPDEST DUP3 DUP2 LT ISZERO PUSH2 0x1349 JUMPI DUP5 DUP10 ADD MLOAD DUP3 SSTORE PUSH1 0x1 DUP3 ADD SWAP2 POP PUSH1 0x20 DUP6 ADD SWAP5 POP PUSH1 0x20 DUP2 ADD SWAP1 POP PUSH2 0x1324 JUMP JUMPDEST DUP7 DUP4 LT ISZERO PUSH2 0x1366 JUMPI DUP5 DUP10 ADD MLOAD PUSH2 0x1362 PUSH1 0x1F DUP10 AND DUP3 PUSH2 0x1275 JUMP JUMPDEST DUP4 SSTORE POP JUMPDEST PUSH1 0x1 PUSH1 0x2 DUP9 MUL ADD DUP9 SSTORE POP POP POP JUMPDEST POP POP POP POP POP POP JUMP JUMPDEST PUSH0 PUSH1 0x40 DUP3 ADD SWAP1 POP DUP2 DUP2 SUB PUSH0 DUP4 ADD MSTORE PUSH2 0x1393 DUP2 DUP6 PUSH2 0xB1F JUMP JUMPDEST SWAP1 POP DUP2 DUP2 SUB PUSH1 0x20 DUP4 ADD MSTORE PUSH2 0x13A7 DUP2 DUP5 PUSH2 0xB1F JUMP JUMPDEST SWAP1 POP SWAP4 SWAP3 POP POP POP JUMP JUMPDEST PUSH32 0x4E487B7100000000000000000000000000000000000000000000000000000000 PUSH0 MSTORE PUSH1 0x32 PUSH1 0x4 MSTORE PUSH1 0x24 PUSH0 REVERT INVALID LOG2 PUSH5 0x6970667358 0x22 SLT KECCAK256 0xAE PUSH32 0x230E63869542E14355B0AAF4FA6E7B94021F39F95CC3C239036E67D95D0E6473 PUSH16 0x6C634300081A00330000000000000000 "
		},
		"gasEstimates": {
			"creation": {
				"codeDepositCost": "1027800",
				"executionCost": "1065",
				"totalCost": "1028865"
			},
			"external": {
				"getCardsByOwner(address)": "infinite",
				"getTotalCards()": "2484",
				"holidayCards(uint256)": "infinite",
				"mintHolidayCard(string,string,string)": "infinite",
				"ownerCardIndex(address,uint256)": "infinite"
			}
		},
		"methodIdentifiers": {
			"getCardsByOwner(address)": "eba73c7c",
			"getTotalCards()": "b8d2caee",
			"holidayCards(uint256)": "752c0c15",
			"mintHolidayCard(string,string,string)": "b3026368",
			"ownerCardIndex(address,uint256)": "0d5723af"
		}
	},
	"abi": [
		{
			"anonymous": false,
			"inputs": [
				{
					"indexed": true,
					"internalType": "uint256",
					"name": "cardId",
					"type": "uint256"
				},
				{
					"indexed": true,
					"internalType": "address",
					"name": "owner",
					"type": "address"
				},
				{
					"indexed": false,
					"internalType": "string",
					"name": "recipientName",
					"type": "string"
				},
				{
					"indexed": false,
					"internalType": "string",
					"name": "holidayType",
					"type": "string"
				}
			],
			"name": "CardMinted",
			"type": "event"
		},
		{
			"inputs": [
				{
					"internalType": "address",
					"name": "_owner",
					"type": "address"
				}
			],
			"name": "getCardsByOwner",
			"outputs": [
				{
					"components": [
						{
							"internalType": "address",
							"name": "owner",
							"type": "address"
						},
						{
							"internalType": "string",
							"name": "message",
							"type": "string"
						},
						{
							"internalType": "string",
							"name": "recipientName",
							"type": "string"
						},
						{
							"internalType": "string",
							"name": "holidayType",
							"type": "string"
						},
						{
							"internalType": "uint256",
							"name": "timestamp",
							"type": "uint256"
						}
					],
					"internalType": "struct SimpleHolidayCardNFT.HolidayCard[]",
					"name": "",
					"type": "tuple[]"
				}
			],
			"stateMutability": "view",
			"type": "function"
		},
		{
			"inputs": [],
			"name": "getTotalCards",
			"outputs": [
				{
					"internalType": "uint256",
					"name": "",
					"type": "uint256"
				}
			],
			"stateMutability": "view",
			"type": "function"
		},
		{
			"inputs": [
				{
					"internalType": "uint256",
					"name": "",
					"type": "uint256"
				}
			],
			"name": "holidayCards",
			"outputs": [
				{
					"internalType": "address",
					"name": "owner",
					"type": "address"
				},
				{
					"internalType": "string",
					"name": "message",
					"type": "string"
				},
				{
					"internalType": "string",
					"name": "recipientName",
					"type": "string"
				},
				{
					"internalType": "string",
					"name": "holidayType",
					"type": "string"
				},
				{
					"internalType": "uint256",
					"name": "timestamp",
					"type": "uint256"
				}
			],
			"stateMutability": "view",
			"type": "function"
		},
		{
			"inputs": [
				{
					"internalType": "string",
					"name": "_message",
					"type": "string"
				},
				{
					"internalType": "string",
					"name": "_recipientName",
					"type": "string"
				},
				{
					"internalType": "string",
					"name": "_holidayType",
					"type": "string"
				}
			],
			"name": "mintHolidayCard",
			"outputs": [
				{
					"internalType": "uint256",
					"name": "",
					"type": "uint256"
				}
			],
			"stateMutability": "nonpayable",
			"type": "function"
		},
		{
			"inputs": [
				{
					"internalType": "address",
					"name": "",
					"type": "address"
				},
				{
					"internalType": "uint256",
					"name": "",
					"type": "uint256"
				}
			],
			"name": "ownerCardIndex",
			"outputs": [
				{
					"internalType": "uint256",
					"name": "",
					"type": "uint256"
				}
			],
			"stateMutability": "view",
			"type": "function"
		}
	]
}